{
  "transactions": [
    {
      "hash": "0xf9eea4d654fe01c986b9160b8e33365f6c0fa60cb7e8531315f425391c41f909",
      "transactionType": "CALL",
      "contractName": null,
      "contractAddress": "0x2a4a818090cd3f723f9991091be324a5b16489c8",
      "function": "registerTreasury(uint8)",
      "arguments": [
        "65535"
      ],
      "transaction": {
        "from": "0x97a008fe1887b1448313b69f4324194a8e2a739d",
        "to": "0x2a4a818090cd3f723f9991091be324a5b16489c8",
        "gas": "0xf87e",
        "value": "0x0",
        "input": "0x211c85ab000000000000000000000000000000000000000000000000000000000000ffff",
        "nonce": "0x108",
        "chainId": "0xaa36a7"
      },
      "additionalContracts": [],
      "isFixedGasLimit": false
    },
    {
      "hash": "0xe56bfcfaa842efaf55409657dda2fb1a398c9c95a1e2048b0c28cb1c2f6904d7",
      "transactionType": "CALL",
      "contractName": null,
      "contractAddress": "0x2a4a818090cd3f723f9991091be324a5b16489c8",
      "function": "claimLeadership()",
      "arguments": [],
      "transaction": {
        "from": "0x97a008fe1887b1448313b69f4324194a8e2a739d",
        "to": "0x2a4a818090cd3f723f9991091be324a5b16489c8",
        "gas": "0xf56b",
        "value": "0x0",
        "input": "0x5b3e8fe7",
        "nonce": "0x109",
        "chainId": "0xaa36a7"
      },
      "additionalContracts": [],
      "isFixedGasLimit": false
    }
  ],
  "receipts": [
    {
      "status": "0x1",
      "cumulativeGasUsed": "0x8b629a",
      "logs": [],
      "logsBloom": "0x00000000000000000000000000000000000000000000000000000000000000000000000000000000000000000000000000000000000000000000000000000000000000000000000000000000000000000000000000000000000000000000000000000000000000000000000000000000000000000000000000000000000000000000000000000000000000000000000000000000000000000000000000000000000000000000000000000000000000000000000000000000000000000000000000000000000000000000000000000000000000000000000000000000000000000000000000000000000000000000000000000000000000000000000000000000",
      "type": "0x2",
      "transactionHash": "0xf9eea4d654fe01c986b9160b8e33365f6c0fa60cb7e8531315f425391c41f909",
      "transactionIndex": "0x7d",
      "blockHash": "0x86336b1891a13d5261e7ecb4098128c7bf0129302e35d6a9cd061255d7672e1d",
      "blockNumber": "0x7610ed",
      "gasUsed": "0xa9e9",
      "effectiveGasPrice": "0xce139e1",
      "from": "0x97a008fe1887b1448313b69f4324194a8e2a739d",
      "to": "0x2a4a818090cd3f723f9991091be324a5b16489c8",
      "contractAddress": null
    },
    {
      "status": "0x1",
      "cumulativeGasUsed": "0x8c1449",
      "logs": [],
      "logsBloom": "0x00000000000000000000000000000000000000000000000000000000000000000000000000000000000000000000000000000000000000000000000000000000000000000000000000000000000000000000000000000000000000000000000000000000000000000000000000000000000000000000000000000000000000000000000000000000000000000000000000000000000000000000000000000000000000000000000000000000000000000000000000000000000000000000000000000000000000000000000000000000000000000000000000000000000000000000000000000000000000000000000000000000000000000000000000000000",
      "type": "0x2",
      "transactionHash": "0xe56bfcfaa842efaf55409657dda2fb1a398c9c95a1e2048b0c28cb1c2f6904d7",
      "transactionIndex": "0x7e",
      "blockHash": "0x86336b1891a13d5261e7ecb4098128c7bf0129302e35d6a9cd061255d7672e1d",
      "blockNumber": "0x7610ed",
      "gasUsed": "0xb1af",
      "effectiveGasPrice": "0xce139e1",
      "from": "0x97a008fe1887b1448313b69f4324194a8e2a739d",
      "to": "0x2a4a818090cd3f723f9991091be324a5b16489c8",
      "contractAddress": null
    }
  ],
  "libraries": [],
  "pending": [],
  "returns": {},
  "timestamp": 1739928710,
  "chain": 11155111,
  "commit": "3a39832"
}