{
  "transactions": [
    {
      "hash": "0xeede028c1c6b08c20dd6d348289acecfca3fea0740f49d6ce80775639b769009",
      "transactionType": "CALL",
      "contractName": null,
      "contractAddress": "0x925cd79ce098576f70da1cdf7319b0240a209dba",
      "function": "unlock(bytes16)",
      "arguments": [
        "0x224996fc341ac90c76a1188273f7d143"
      ],
      "transaction": {
        "from": "0x97a008fe1887b1448313b69f4324194a8e2a739d",
        "to": "0x925cd79ce098576f70da1cdf7319b0240a209dba",
        "gas": "0x8940",
        "value": "0x0",
        "input": "0xe1afb08c224996fc341ac90c76a1188273f7d14300000000000000000000000000000000",
        "nonce": "0x119",
        "chainId": "0xaa36a7"
      },
      "additionalContracts": [],
      "isFixedGasLimit": false
    }
  ],
  "receipts": [
    {
      "status": "0x1",
      "cumulativeGasUsed": "0xffad82",
      "logs": [],
      "logsBloom": "0x00000000000000000000000000000000000000000000000000000000000000000000000000000000000000000000000000000000000000000000000000000000000000000000000000000000000000000000000000000000000000000000000000000000000000000000000000000000000000000000000000000000000000000000000000000000000000000000000000000000000000000000000000000000000000000000000000000000000000000000000000000000000000000000000000000000000000000000000000000000000000000000000000000000000000000000000000000000000000000000000000000000000000000000000000000000",
      "type": "0x2",
      "transactionHash": "0xeede028c1c6b08c20dd6d348289acecfca3fea0740f49d6ce80775639b769009",
      "transactionIndex": "0xaa",
      "blockHash": "0x2429f13664080ca1b8708598c2db2eb31f6522759fdc450d5291f506af54bd6a",
      "blockNumber": "0x76672f",
      "gasUsed": "0x5dd9",
      "effectiveGasPrice": "0x3586d9f6",
      "from": "0x97a008fe1887b1448313b69f4324194a8e2a739d",
      "to": "0x925cd79ce098576f70da1cdf7319b0240a209dba",
      "contractAddress": null
    }
  ],
  "libraries": [],
  "pending": [],
  "returns": {},
  "timestamp": 1740201517,
  "chain": 11155111,
  "commit": "276071a"
}