{
  "transactions": [
    {
      "hash": "0x6dae4df2b2366eba9276a33845025e8e3d722467a35ad19ffdeb59c8bcb641c4",
      "transactionType": "CREATE",
      "contractName": "Attack",
      "contractAddress": "0x85bbc2bbb766ed2fe811e40df8d89e46ef77d728",
      "function": null,
      "arguments": null,
      "transaction": {
        "from": "0x97a008fe1887b1448313b69f4324194a8e2a739d",
        "gas": "0x1ae02",
        "value": "0x0",
        "input": "0x60806040525f5f553480156011575f5ffd5b50608680601d5f395ff3fe6080604052348015600e575f5ffd5b5060405162461bcd60e51b8152602060048201526012602482015271213637b1b5b4b733903a3930b739b332b91760711b604482015260640160405180910390fdfea2646970667358221220c8730294ee59e6611cf9493928f77a5d1433399b88b1e163cf9b19d34925c0bb64736f6c634300081c0033",
        "nonce": "0xe2",
        "chainId": "0xaa36a7"
      },
      "additionalContracts": [],
      "isFixedGasLimit": false
    },
    {
      "hash": "0x8f94d43cee4b9d6027da5d235886e9b24c855dcd507e882c57de4247b946cc94",
      "transactionType": "CALL",
      "contractName": null,
      "contractAddress": "0x89d93583e73a02dec478258278796a6f35308362",
      "function": "setWithdrawPartner(address)",
      "arguments": [
        "0x85BBc2bbb766ed2FE811E40dF8d89E46ef77D728"
      ],
      "transaction": {
        "from": "0x97a008fe1887b1448313b69f4324194a8e2a739d",
        "to": "0x89d93583e73a02dec478258278796a6f35308362",
        "gas": "0xecaa",
        "value": "0x0",
        "input": "0x4e1c591400000000000000000000000085bbc2bbb766ed2fe811e40df8d89e46ef77d728",
        "nonce": "0xe3",
        "chainId": "0xaa36a7"
      },
      "additionalContracts": [],
      "isFixedGasLimit": false
    },
    {
      "hash": "0x8aa49d55a7f1371cfcb748f38af8f286a8641946d3fb82f4d9a5c6df10b7a698",
      "transactionType": "CALL",
      "contractName": null,
      "contractAddress": "0x89d93583e73a02dec478258278796a6f35308362",
      "function": "withdraw()",
      "arguments": [],
      "transaction": {
        "from": "0x97a008fe1887b1448313b69f4324194a8e2a739d",
        "to": "0x89d93583e73a02dec478258278796a6f35308362",
        "gas": "0x1ef62",
        "value": "0x0",
        "input": "0x3ccfd60b",
        "nonce": "0xe4",
        "chainId": "0xaa36a7"
      },
      "additionalContracts": [],
      "isFixedGasLimit": false
    }
  ],
  "receipts": [
    {
      "status": "0x1",
      "cumulativeGasUsed": "0x9c8d43",
      "logs": [],
      "logsBloom": "0x00000000000000000000000000000000000000000000000000000000000000000000000000000000000000000000000000000000000000000000000000000000000000000000000000000000000000000000000000000000000000000000000000000000000000000000000000000000000000000000000000000000000000000000000000000000000000000000000000000000000000000000000000000000000000000000000000000000000000000000000000000000000000000000000000000000000000000000000000000000000000000000000000000000000000000000000000000000000000000000000000000000000000000000000000000000",
      "type": "0x2",
      "transactionHash": "0x6dae4df2b2366eba9276a33845025e8e3d722467a35ad19ffdeb59c8bcb641c4",
      "transactionIndex": "0xa0",
      "blockHash": "0xe7aa4c4a0f948c6a91a36ba1475060fa6fd3932968f8a9c0ae0db0cc5cb6a644",
      "blockNumber": "0x75e71d",
      "gasUsed": "0x14ac7",
      "effectiveGasPrice": "0x78f3520f2",
      "from": "0x97a008fe1887b1448313b69f4324194a8e2a739d",
      "to": null,
      "contractAddress": "0x85bbc2bbb766ed2fe811e40df8d89e46ef77d728"
    },
    {
      "status": "0x1",
      "cumulativeGasUsed": "0x9d389b",
      "logs": [],
      "logsBloom": "0x00000000000000000000000000000000000000000000000000000000000000000000000000000000000000000000000000000000000000000000000000000000000000000000000000000000000000000000000000000000000000000000000000000000000000000000000000000000000000000000000000000000000000000000000000000000000000000000000000000000000000000000000000000000000000000000000000000000000000000000000000000000000000000000000000000000000000000000000000000000000000000000000000000000000000000000000000000000000000000000000000000000000000000000000000000000",
      "type": "0x2",
      "transactionHash": "0x8f94d43cee4b9d6027da5d235886e9b24c855dcd507e882c57de4247b946cc94",
      "transactionIndex": "0xa1",
      "blockHash": "0xe7aa4c4a0f948c6a91a36ba1475060fa6fd3932968f8a9c0ae0db0cc5cb6a644",
      "blockNumber": "0x75e71d",
      "gasUsed": "0xab58",
      "effectiveGasPrice": "0x78f3520f2",
      "from": "0x97a008fe1887b1448313b69f4324194a8e2a739d",
      "to": "0x89d93583e73a02dec478258278796a6f35308362",
      "contractAddress": null
    },
    {
      "status": "0x1",
      "cumulativeGasUsed": "0x9e8b55",
      "logs": [],
      "logsBloom": "0x00000000000000000000000000000000000000000000000000000000000000000000000000000000000000000000000000000000000000000000000000000000000000000000000000000000000000000000000000000000000000000000000000000000000000000000000000000000000000000000000000000000000000000000000000000000000000000000000000000000000000000000000000000000000000000000000000000000000000000000000000000000000000000000000000000000000000000000000000000000000000000000000000000000000000000000000000000000000000000000000000000000000000000000000000000000",
      "type": "0x2",
      "transactionHash": "0x8aa49d55a7f1371cfcb748f38af8f286a8641946d3fb82f4d9a5c6df10b7a698",
      "transactionIndex": "0xa2",
      "blockHash": "0xe7aa4c4a0f948c6a91a36ba1475060fa6fd3932968f8a9c0ae0db0cc5cb6a644",
      "blockNumber": "0x75e71d",
      "gasUsed": "0x152ba",
      "effectiveGasPrice": "0x78f3520f2",
      "from": "0x97a008fe1887b1448313b69f4324194a8e2a739d",
      "to": "0x89d93583e73a02dec478258278796a6f35308362",
      "contractAddress": null
    }
  ],
  "libraries": [],
  "pending": [],
  "returns": {},
  "timestamp": 1739795449,
  "chain": 11155111,
  "commit": "ab8a5cd"
}